{
  "contractName": "EnergyTrading",
  "abi": [
    {
      "anonymous": false,
      "inputs": [
        {
          "indexed": true,
          "internalType": "uint256",
          "name": "id",
          "type": "uint256"
        },
        {
          "indexed": false,
          "internalType": "address",
          "name": "seller",
          "type": "address"
        },
        {
          "indexed": false,
          "internalType": "uint256",
          "name": "amount",
          "type": "uint256"
        },
        {
          "indexed": false,
          "internalType": "uint256",
          "name": "price",
          "type": "uint256"
        }
      ],
      "name": "Listed",
      "type": "event"
    },
    {
      "anonymous": false,
      "inputs": [
        {
          "indexed": true,
          "internalType": "uint256",
          "name": "id",
          "type": "uint256"
        },
        {
          "indexed": false,
          "internalType": "address",
          "name": "buyer",
          "type": "address"
        },
        {
          "indexed": false,
          "internalType": "uint256",
          "name": "amount",
          "type": "uint256"
        }
      ],
      "name": "Purchased",
      "type": "event"
    },
    {
      "inputs": [
        {
          "internalType": "uint256",
          "name": "",
          "type": "uint256"
        }
      ],
      "name": "listings",
      "outputs": [
        {
          "internalType": "address",
          "name": "seller",
          "type": "address"
        },
        {
          "internalType": "uint256",
          "name": "amountKWh",
          "type": "uint256"
        },
        {
          "internalType": "uint256",
          "name": "pricePerKWh",
          "type": "uint256"
        },
        {
          "internalType": "bool",
          "name": "isActive",
          "type": "bool"
        }
      ],
      "stateMutability": "view",
      "type": "function"
    },
    {
      "inputs": [],
      "name": "nextListingId",
      "outputs": [
        {
          "internalType": "uint256",
          "name": "",
          "type": "uint256"
        }
      ],
      "stateMutability": "view",
      "type": "function"
    },
    {
      "inputs": [
        {
          "internalType": "uint256",
          "name": "_amountKWh",
          "type": "uint256"
        },
        {
          "internalType": "uint256",
          "name": "_pricePerKWh",
          "type": "uint256"
        }
      ],
      "name": "listEnergy",
      "outputs": [],
      "stateMutability": "nonpayable",
      "type": "function"
    },
    {
      "inputs": [
        {
          "internalType": "uint256",
          "name": "_id",
          "type": "uint256"
        },
        {
          "internalType": "uint256",
          "name": "_amountKWh",
          "type": "uint256"
        }
      ],
      "name": "buyEnergy",
      "outputs": [],
      "stateMutability": "payable",
      "type": "function"
    }
  ],
  "bytecode": "0x608060405234801561001057600080fd5b5061077f806100206000396000f3fe60806040526004361061003f5760003560e01c8063aaccf1ec14610044578063c8a9fb5e1461006f578063cdb6d52d14610098578063de74e57b146100b4575b600080fd5b34801561005057600080fd5b506100596100f4565b60405161006691906105ec565b60405180910390f35b34801561007b57600080fd5b506100966004803603810190610091919061041e565b6100fa565b005b6100b260048036038101906100ad919061041e565b610220565b005b3480156100c057600080fd5b506100db60048036038101906100d691906103f5565b610383565b6040516100eb9493929190610567565b60405180910390f35b60015481565b60405180608001604052803373ffffffffffffffffffffffffffffffffffffffff16815260200183815260200182815260200160011515815250600080600154815260200190815260200160002060008201518160000160006101000a81548173ffffffffffffffffffffffffffffffffffffffff021916908373ffffffffffffffffffffffffffffffffffffffff160217905550602082015181600101556040820151816002015560608201518160030160006101000a81548160ff0219169083151502179055509050506001547f98868c46d49b200d82c273c9f28d73265826ca6567690262736450563dfff64c3384846040516101fc93929190610530565b60405180910390a260016000815480929190610217906106ba565b91905055505050565b600080600084815260200190815260200160002090508060030160009054906101000a900460ff16610287576040517f08c379a000000000000000000000000000000000000000000000000000000000815260040161027e906105ac565b60405180910390fd5b8060020154826102979190610618565b3410156102d9576040517f08c379a00000000000000000000000000000000000000000000000000000000081526004016102d0906105cc565b60405180910390fd5b8060000160009054906101000a900473ffffffffffffffffffffffffffffffffffffffff1673ffffffffffffffffffffffffffffffffffffffff166108fc349081150290604051600060405180830381858888f19350505050158015610343573d6000803e3d6000fd5b50827ffd51b2c9f55c42d2b72ac683526519563be02fc0107f034ff430c05185ff1b663384604051610376929190610507565b60405180910390a2505050565b60006020528060005260406000206000915090508060000160009054906101000a900473ffffffffffffffffffffffffffffffffffffffff16908060010154908060020154908060030160009054906101000a900460ff16905084565b6000813590506103ef81610732565b92915050565b60006020828403121561040757600080fd5b6000610415848285016103e0565b91505092915050565b6000806040838503121561043157600080fd5b600061043f858286016103e0565b9250506020610450858286016103e0565b9150509250929050565b61046381610672565b82525050565b61047281610684565b82525050565b6000610485601083610607565b91507f4c697374696e6720696e616374697665000000000000000000000000000000006000830152602082019050919050565b60006104c5601483610607565b91507f496e73756666696369656e74207061796d656e740000000000000000000000006000830152602082019050919050565b610501816106b0565b82525050565b600060408201905061051c600083018561045a565b61052960208301846104f8565b9392505050565b6000606082019050610545600083018661045a565b61055260208301856104f8565b61055f60408301846104f8565b949350505050565b600060808201905061057c600083018761045a565b61058960208301866104f8565b61059660408301856104f8565b6105a36060830184610469565b95945050505050565b600060208201905081810360008301526105c581610478565b9050919050565b600060208201905081810360008301526105e5816104b8565b9050919050565b600060208201905061060160008301846104f8565b92915050565b600082825260208201905092915050565b6000610623826106b0565b915061062e836106b0565b9250817fffffffffffffffffffffffffffffffffffffffffffffffffffffffffffffffff048311821515161561066757610666610703565b5b828202905092915050565b600061067d82610690565b9050919050565b60008115159050919050565b600073ffffffffffffffffffffffffffffffffffffffff82169050919050565b6000819050919050565b60006106c5826106b0565b91507fffffffffffffffffffffffffffffffffffffffffffffffffffffffffffffffff8214156106f8576106f7610703565b5b600182019050919050565b7f4e487b7100000000000000000000000000000000000000000000000000000000600052601160045260246000fd5b61073b816106b0565b811461074657600080fd5b5056fea2646970667358221220ae39e11698cd0165bef0be4325d99a6f6b5dcdf329b0c9885117dab069c96ce664736f6c63430008000033",
  "immutableReferences": {},
  "source": "// SPDX-License-Identifier: MIT\r\npragma solidity ^0.8.0;\r\n\r\ncontract EnergyTrading {\r\n    struct Listing {\r\n        address seller;\r\n        uint256 amountKWh;\r\n        uint256 pricePerKWh;\r\n        bool isActive;\r\n    }\r\n\r\n    mapping(uint256 => Listing) public listings;\r\n    uint256 public nextListingId;\r\n\r\n    event Listed(uint256 indexed id, address seller, uint256 amount, uint256 price);\r\n    event Purchased(uint256 indexed id, address buyer, uint256 amount);\r\n\r\n    function listEnergy(uint256 _amountKWh, uint256 _pricePerKWh) external {\r\n        listings[nextListingId] = Listing(msg.sender, _amountKWh, _pricePerKWh, true);\r\n        emit Listed(nextListingId, msg.sender, _amountKWh, _pricePerKWh);\r\n        nextListingId++;\r\n    }\r\n\r\n    function buyEnergy(uint256 _id, uint256 _amountKWh) external payable {\r\n        Listing storage listing = listings[_id];\r\n        require(listing.isActive, \"Listing inactive\");\r\n        require(msg.value >= _amountKWh * listing.pricePerKWh, \"Insufficient payment\");\r\n        \r\n        payable(listing.seller).transfer(msg.value);\r\n        emit Purchased(_id, msg.sender, _amountKWh);\r\n    }\r\n}",
  "sourcePath": "C:\\Users\\dheer\\OneDrive\\Documents\\sem4\\blockchain\\project\\energy-trading-platform\\client\\src\\contracts\\contracts\\EnergyTrading.sol",
  "compiler": {
    "name": "solc",
    "version": "0.8.0+commit.c7dfd78e.Emscripten.clang"
  },
  "schemaVersion": "3.4.16",
  "updatedAt": "2025-04-25T07:40:16.109Z",
  "devdoc": {
    "kind": "dev",
    "methods": {},
    "version": 1
  },
  "userdoc": {
    "kind": "user",
    "methods": {},
    "version": 1
  }
}